S00D00006A656C6C792E73726563F7
S113000012C019C018C017C016C015C014C013C040
S113001012C011C010C00FC00EC00DC00CC00BC068
S11300200AC009C008C011241FBECFE5D4E0DEBF5A
S1130030CDBF2ED078C0E4CF18BA17BA15BA14BA07
S113004012BA80EE81BB13BE12BE1FBC1EBC1DBC07
S11300501CBC17BC16BC1BBC1ABC19BC18BC12BCFB
S113006015BC14BC13BC15BE19BE1BB880E18AB9FB
S113007086E880BD10BC83E389B980E888B910BEE6
S113008016B81DB816BE08955F9BFECF8CB10895B7
S1130090D3DFFADF813669F4959A969A979A2FEF0F
S11300A084E39CE0215080409040E1F700C00000D0
S11300B0F0CF823669F4959A969A97982FEF84E355
S11300C09CE0215080409040E1F700C00000E1CF67
S11300D0833669F4969A979A95982FEF84E39CE077
S11300E0215080409040E1F700C00000D2CF843618
S11300F069F4959A979A96982FEF84E39CE021509F
S113010080409040E1F700C00000C3CF95989698D6
S113011097982FEF84E39CE0215080409040E1F7D2
S10D012000C00000B6CFF894FFCF32
S9030000FC
